:1000000002308A00A42A0000FF00030E8301A10031
:100010000A08A0008A010408A2007708A300780853
:10002000A4007908A5007A08A600831383128B1E0A
:100030001B280B192C28220884002308F700240809
:10004000F8002508F9002608FA0020088A00210E89
:100050008300FF0E7F0E09008A110A1237280A104A
:100060008A100A11820728340C3401340634013016
:10007000A7070318A80A2808C0002708BF00C20164
:10008000FA30C100F801F901F701FA014208031D35
:100090004C284108031966281030C3000310BF0D17
:1000A000C00DF70DFA0D42087A02031D59284108C8
:1000B0007702031C62284108F702031CFA03420876
:1000C000FA020314F80DF90DC30B4E287708BF0090
:1000D0007A08C000BF08031D7228C008031D7228DB
:1000E0000130AB072B083B3C031879280130AA07E5
:1000F000AB012A083B3C031880280130A907AA015C
:100100002C0B88282908183C031888280130A900DE
:10011000AC08031D912829080C3C031891280130D4
:10012000A9000B118A110A121B28321AA039E130DA
:1001300074003119A039E1307400321AA039E1306D
:1001400074003119A039E130740035308400831314
:1001500000080319B9280130F800F701F70BAE28A1
:10016000F80BAD284A30F700F70BB428B728800BFE
:10017000AB2808003C18BE288611BF2886158316B8
:1001800086118312BC18C6280612C72806168316C5
:10019000061283123C19CE288612CF2886168316A3
:1001A00086128312BC19D6280613D7280617831681
:1001B000061300008312061483160610DF2883122C
:1001C00006108316061083120800BD0183168615DB
:1001D0000030831286190130BD04831606160030E4
:1001E0008312061A0130F7000310F70D7708BD04DB
:1001F0008316861600308312861A0130F700F70D39
:10020000F70DFC30F7057708BD048316061700309C
:100210008312061B0130F700F70DF70DF70DF830CC
:10022000F7057708BD043D08F8000800831606109E
:100230008610061183128610831686108615061600
:100240008616061783120615831606110000831200
:1002500006148316061000008312E5207808BC00FF
:10026000061083160610000083120614831606106B
:1002700000008312E5207808BB00061083160610E4
:10028000861106128612061383123C0EF700F03018
:10029000F70577083B04F8007808BB00BB1F52291C
:1002A00083161E29B908031D57298610582986145C
:1002B00083168610000083120611831606110000B3
:1002C000831206108316061083123A0EBB000F30FD
:1002D000BB053B08BC00BA203A080F39BB00BC0084
:1002E000BA2008008316861106128612061306101D
:1002F000861006118312861083168610831206114B
:100300008316061183120610831606100F3083120F
:10031000B500A5200130AE002E08033C031C98292F
:100320000330BC00BA200530B500A520AE0A8C29E8
:100330000230BC00BA200530B500A520AE012E0861
:10034000033C031CAC292E082F20AF00B9012F0855
:10035000BA001621AE0A9F298A110A12C32A360B47
:10036000B229B5294030B700B629B70101303502AE
:10037000B70737088038B800B9013808BA00162125
:1003800008003508F80134020318C9293408F700B9
:10039000D529F7010830B600B40DF70D35087702FE
:1003A0000318F700F80DB60BCC2908003408073AFB
:1003B0000319E4290B3A0319E929063A0319F1292B
:1003C000023A0319F729FC290130B500B600AF2124
:1003D000012AB9010130BA0016210230B500A5206A
:1003E000012A0130B5000230B600AF21012AB9015F
:1003F0001030BA001621012A0130B9003408BA00C1
:100400001621080020302F1E3030B0002E08F700D3
:10041000AE1F122AF709F70A7708AE002D30B00098
:10042000AF172F142E08B4006430B500C12177082F
:10043000AE0030307807B1002E08B4000A30B500A5
:10044000C12130307707B30030307807B200300870
:10045000F700303031020319312AAF14AF1B2F15CA
:10046000452A3008B1002030B00030303202031984
:100470003D2A2F14AF1BAF14452A031D2F14031D53
:10048000452A3108B2002030B1002F194C2AAF188C
:100490004F2A2F18522A552A3008B400D621310885
:1004A000B400D6213208B400D6213308B400D621D6
:1004B00008000B08AE008B13831603178C170C145F
:1004C0000000000083120C087F390319A02A0313CF
:1004D000AF0003170D080313B00003170F08031331
:1004E000B1002F08B400D621300803178D00031384
:1004F000310803178F0083168C170C1400000000BE
:1005000083120C0D0E0D7F390319A02A0313AF00BF
:1005100003170D080313B00003170F080313B100EE
:100520002F08B400D621300803178D0003133108BB
:1005300003178F008D0A03198F0A03135C2A031710
:100540000313AE1B8B170800FF30AD0083161F147A
:100550009F141F159F1107309C0083131F308305C4
:100560000912831290010030F800920000308316C7
:1005700092001F149F141F159F1183121F10F0303B
:1005800097059D0572293F30831685000730870047
:100590008312AD002D152D088316870083120719CD
:1005A0009A2B0130B500B600AF212908AE001130FA
:1005B000AF0002223A30B400D6212A08AE00113032
:1005C000AF0002223A30B400D6212B08AE00113021
:1005D000AF0002222030B400D6212030B400D62152
:1005E0002C0BFE2A0130B5000230B600AF21953049
:1005F00003178D0000308F0003135922AC08031D30
:100600000D2B0130B5000230B600AF219930031731
:100610008D0000308F0003135922AD142D0883166E
:1006200087008312871C172B0130AC001E2B2D1462
:100630002D088316870083120718AC018316051452
:100640008312051C382B0130A907AC08031D2C2B85
:1006500029080C3C031CA9012C0B322B2908183C3F
:10066000031CA9018316051483120518322B552B80
:10067000831685148312851C552B0130A902AC0802
:10068000031D482B01302907031D482B0C30A900FE
:100690002C0B502B01302907031D502B1830A900BB
:1006A0008316851483128518502B83160515831223
:1006B000051D662B0130AA072A083B3C031CAA0132
:1006C0008316051583120519602B772B8316851564
:1006D0008312851D772B0130AA022A07031D722B76
:1006E0003B30AA008316851583128519722B831659
:1006F00005168312051E882B0130AB072B083B3CE7
:10070000031CAB01831605168312051A822B992B45
:10071000831685168312851E992B0130AB022B0799
:10072000031D942B3B30AB00831685168312851A6C
:10073000942BCA2A83160108C0390338810083121A
:100740008B16C0308B04AD142D08831687008312DE
:10075000871CAD2B0130AC00BB2B2D142D0883164C
:1007600087008312071CBB2B29080C3C0318BA2BEB
:100770000C30A902AC010130B500B600AF21290848
:10078000AE001130AF0002223A30B400D6212A0860
:10079000AE001130AF0002223A30B400D6212B084F
:1007A000AE001130AF0002222C0BE22B0130B5005D
:1007B0000230B600AF219D3003178D0000308F004E
:1007C00003135922AC08031DF12B0130B500023090
:1007D000B600AF21A13003178D0000308F00031346
:0607E0005922A32B630067
:02400E00393F38
:00000001FF
;PIC16F877A
;CRC=9474  CREATED="12-Haz-20 20:03"
